{
  "contractName": "NFTTrophy",
  "abi": [
    {
      "inputs": [
        {
          "internalType": "address",
          "name": "_VRFCoordinator",
          "type": "address"
        },
        {
          "internalType": "address",
          "name": "_LinkToken",
          "type": "address"
        },
        {
          "internalType": "bytes32",
          "name": "_keyHash",
          "type": "bytes32"
        }
      ],
      "stateMutability": "nonpayable",
      "type": "constructor"
    },
    {
      "anonymous": false,
      "inputs": [
        {
          "indexed": true,
          "internalType": "address",
          "name": "owner",
          "type": "address"
        },
        {
          "indexed": true,
          "internalType": "address",
          "name": "approved",
          "type": "address"
        },
        {
          "indexed": true,
          "internalType": "uint256",
          "name": "tokenId",
          "type": "uint256"
        }
      ],
      "name": "Approval",
      "type": "event"
    },
    {
      "anonymous": false,
      "inputs": [
        {
          "indexed": true,
          "internalType": "address",
          "name": "owner",
          "type": "address"
        },
        {
          "indexed": true,
          "internalType": "address",
          "name": "operator",
          "type": "address"
        },
        {
          "indexed": false,
          "internalType": "bool",
          "name": "approved",
          "type": "bool"
        }
      ],
      "name": "ApprovalForAll",
      "type": "event"
    },
    {
      "anonymous": false,
      "inputs": [
        {
          "indexed": true,
          "internalType": "address",
          "name": "from",
          "type": "address"
        },
        {
          "indexed": true,
          "internalType": "address",
          "name": "to",
          "type": "address"
        },
        {
          "indexed": true,
          "internalType": "uint256",
          "name": "tokenId",
          "type": "uint256"
        }
      ],
      "name": "Transfer",
      "type": "event"
    },
    {
      "inputs": [],
      "name": "Linktoken",
      "outputs": [
        {
          "internalType": "address",
          "name": "",
          "type": "address"
        }
      ],
      "stateMutability": "view",
      "type": "function",
      "constant": true
    },
    {
      "inputs": [],
      "name": "VRFCoordinator",
      "outputs": [
        {
          "internalType": "address",
          "name": "",
          "type": "address"
        }
      ],
      "stateMutability": "view",
      "type": "function",
      "constant": true
    },
    {
      "inputs": [],
      "name": "add",
      "outputs": [
        {
          "internalType": "address",
          "name": "",
          "type": "address"
        }
      ],
      "stateMutability": "view",
      "type": "function",
      "constant": true
    },
    {
      "inputs": [
        {
          "internalType": "address",
          "name": "to",
          "type": "address"
        },
        {
          "internalType": "uint256",
          "name": "tokenId",
          "type": "uint256"
        }
      ],
      "name": "approve",
      "outputs": [],
      "stateMutability": "nonpayable",
      "type": "function"
    },
    {
      "inputs": [
        {
          "internalType": "address",
          "name": "owner",
          "type": "address"
        }
      ],
      "name": "balanceOf",
      "outputs": [
        {
          "internalType": "uint256",
          "name": "",
          "type": "uint256"
        }
      ],
      "stateMutability": "view",
      "type": "function",
      "constant": true
    },
    {
      "inputs": [
        {
          "internalType": "uint256",
          "name": "tokenId",
          "type": "uint256"
        }
      ],
      "name": "getApproved",
      "outputs": [
        {
          "internalType": "address",
          "name": "",
          "type": "address"
        }
      ],
      "stateMutability": "view",
      "type": "function",
      "constant": true
    },
    {
      "inputs": [
        {
          "internalType": "address",
          "name": "owner",
          "type": "address"
        },
        {
          "internalType": "address",
          "name": "operator",
          "type": "address"
        }
      ],
      "name": "isApprovedForAll",
      "outputs": [
        {
          "internalType": "bool",
          "name": "",
          "type": "bool"
        }
      ],
      "stateMutability": "view",
      "type": "function",
      "constant": true
    },
    {
      "inputs": [],
      "name": "keyHash",
      "outputs": [
        {
          "internalType": "bytes32",
          "name": "",
          "type": "bytes32"
        }
      ],
      "stateMutability": "view",
      "type": "function",
      "constant": true
    },
    {
      "inputs": [],
      "name": "name",
      "outputs": [
        {
          "internalType": "string",
          "name": "",
          "type": "string"
        }
      ],
      "stateMutability": "view",
      "type": "function",
      "constant": true
    },
    {
      "inputs": [
        {
          "internalType": "uint256",
          "name": "tokenId",
          "type": "uint256"
        }
      ],
      "name": "ownerOf",
      "outputs": [
        {
          "internalType": "address",
          "name": "",
          "type": "address"
        }
      ],
      "stateMutability": "view",
      "type": "function",
      "constant": true
    },
    {
      "inputs": [],
      "name": "randomResult",
      "outputs": [
        {
          "internalType": "uint256",
          "name": "",
          "type": "uint256"
        }
      ],
      "stateMutability": "view",
      "type": "function",
      "constant": true
    },
    {
      "inputs": [
        {
          "internalType": "bytes32",
          "name": "requestId",
          "type": "bytes32"
        },
        {
          "internalType": "uint256",
          "name": "randomness",
          "type": "uint256"
        }
      ],
      "name": "rawFulfillRandomness",
      "outputs": [],
      "stateMutability": "nonpayable",
      "type": "function"
    },
    {
      "inputs": [
        {
          "internalType": "address",
          "name": "from",
          "type": "address"
        },
        {
          "internalType": "address",
          "name": "to",
          "type": "address"
        },
        {
          "internalType": "uint256",
          "name": "tokenId",
          "type": "uint256"
        }
      ],
      "name": "safeTransferFrom",
      "outputs": [],
      "stateMutability": "nonpayable",
      "type": "function"
    },
    {
      "inputs": [
        {
          "internalType": "address",
          "name": "from",
          "type": "address"
        },
        {
          "internalType": "address",
          "name": "to",
          "type": "address"
        },
        {
          "internalType": "uint256",
          "name": "tokenId",
          "type": "uint256"
        },
        {
          "internalType": "bytes",
          "name": "_data",
          "type": "bytes"
        }
      ],
      "name": "safeTransferFrom",
      "outputs": [],
      "stateMutability": "nonpayable",
      "type": "function"
    },
    {
      "inputs": [
        {
          "internalType": "address",
          "name": "operator",
          "type": "address"
        },
        {
          "internalType": "bool",
          "name": "approved",
          "type": "bool"
        }
      ],
      "name": "setApprovalForAll",
      "outputs": [],
      "stateMutability": "nonpayable",
      "type": "function"
    },
    {
      "inputs": [
        {
          "internalType": "bytes4",
          "name": "interfaceId",
          "type": "bytes4"
        }
      ],
      "name": "supportsInterface",
      "outputs": [
        {
          "internalType": "bool",
          "name": "",
          "type": "bool"
        }
      ],
      "stateMutability": "view",
      "type": "function",
      "constant": true
    },
    {
      "inputs": [],
      "name": "symbol",
      "outputs": [
        {
          "internalType": "string",
          "name": "",
          "type": "string"
        }
      ],
      "stateMutability": "view",
      "type": "function",
      "constant": true
    },
    {
      "inputs": [
        {
          "internalType": "uint256",
          "name": "tokenId",
          "type": "uint256"
        }
      ],
      "name": "tokenURI",
      "outputs": [
        {
          "internalType": "string",
          "name": "",
          "type": "string"
        }
      ],
      "stateMutability": "view",
      "type": "function",
      "constant": true
    },
    {
      "inputs": [],
      "name": "tokensCount",
      "outputs": [
        {
          "internalType": "uint256",
          "name": "",
          "type": "uint256"
        }
      ],
      "stateMutability": "view",
      "type": "function",
      "constant": true
    },
    {
      "inputs": [
        {
          "internalType": "address",
          "name": "from",
          "type": "address"
        },
        {
          "internalType": "address",
          "name": "to",
          "type": "address"
        },
        {
          "internalType": "uint256",
          "name": "tokenId",
          "type": "uint256"
        }
      ],
      "name": "transferFrom",
      "outputs": [],
      "stateMutability": "nonpayable",
      "type": "function"
    },
    {
      "inputs": [
        {
          "internalType": "uint256",
          "name": "",
          "type": "uint256"
        }
      ],
      "name": "trophies",
      "outputs": [
        {
          "internalType": "uint256",
          "name": "tokenId",
          "type": "uint256"
        },
        {
          "internalType": "uint256",
          "name": "rarity",
          "type": "uint256"
        },
        {
          "internalType": "uint256",
          "name": "worth",
          "type": "uint256"
        },
        {
          "internalType": "string",
          "name": "name",
          "type": "string"
        },
        {
          "internalType": "uint256",
          "name": "levelPass",
          "type": "uint256"
        },
        {
          "internalType": "string",
          "name": "image",
          "type": "string"
        }
      ],
      "stateMutability": "view",
      "type": "function",
      "constant": true
    },
    {
      "inputs": [
        {
          "internalType": "address",
          "name": "",
          "type": "address"
        },
        {
          "internalType": "uint256",
          "name": "",
          "type": "uint256"
        }
      ],
      "name": "usersNft",
      "outputs": [
        {
          "internalType": "uint256",
          "name": "tokenId",
          "type": "uint256"
        },
        {
          "internalType": "uint256",
          "name": "rarity",
          "type": "uint256"
        },
        {
          "internalType": "uint256",
          "name": "worth",
          "type": "uint256"
        },
        {
          "internalType": "string",
          "name": "name",
          "type": "string"
        },
        {
          "internalType": "uint256",
          "name": "levelPass",
          "type": "uint256"
        },
        {
          "internalType": "string",
          "name": "image",
          "type": "string"
        }
      ],
      "stateMutability": "view",
      "type": "function",
      "constant": true
    },
    {
      "inputs": [
        {
          "internalType": "address",
          "name": "",
          "type": "address"
        }
      ],
      "name": "usersNftCount",
      "outputs": [
        {
          "internalType": "uint256",
          "name": "",
          "type": "uint256"
        }
      ],
      "stateMutability": "view",
      "type": "function",
      "constant": true
    },
    {
      "inputs": [
        {
          "internalType": "uint256",
          "name": "userProvidedSeed",
          "type": "uint256"
        },
        {
          "internalType": "string",
          "name": "name",
          "type": "string"
        },
        {
          "internalType": "uint256",
          "name": "levelPass",
          "type": "uint256"
        },
        {
          "internalType": "address",
          "name": "walletAddress",
          "type": "address"
        },
        {
          "internalType": "string",
          "name": "_tokenURI",
          "type": "string"
        }
      ],
      "name": "requestNewRandomTrophy",
      "outputs": [
        {
          "internalType": "bytes32",
          "name": "",
          "type": "bytes32"
        }
      ],
      "stateMutability": "nonpayable",
      "type": "function"
    }
  ],
  "bytecode": "0x60c06040523480156200001157600080fd5b50604051620043d3380380620043d38339818101604052810190620000379190620002c8565b82826040518060400160405280600a81526020017f54726f70687943686172000000000000000000000000000000000000000000008152506040518060400160405280600381526020017f54525000000000000000000000000000000000000000000000000000000000008152508160009080519060200190620000bd929190620001ea565b508060019080519060200190620000d6929190620001ea565b5050508173ffffffffffffffffffffffffffffffffffffffff1660a08173ffffffffffffffffffffffffffffffffffffffff1660601b815250508073ffffffffffffffffffffffffffffffffffffffff1660808173ffffffffffffffffffffffffffffffffffffffff1660601b81525050505082600960006101000a81548173ffffffffffffffffffffffffffffffffffffffff021916908373ffffffffffffffffffffffffffffffffffffffff1602179055508060088190555081600c60006101000a81548173ffffffffffffffffffffffffffffffffffffffff021916908373ffffffffffffffffffffffffffffffffffffffff16021790555067016345785d8a0000600a81905550505050620003f5565b828054620001f8906200035c565b90600052602060002090601f0160209004810192826200021c576000855562000268565b82601f106200023757805160ff191683800117855562000268565b8280016001018555821562000268579182015b82811115620002675782518255916020019190600101906200024a565b5b5090506200027791906200027b565b5090565b5b80821115620002965760008160009055506001016200027c565b5090565b600081519050620002ab81620003c1565b92915050565b600081519050620002c281620003db565b92915050565b600080600060608486031215620002de57600080fd5b6000620002ee868287016200029a565b935050602062000301868287016200029a565b92505060406200031486828701620002b1565b9150509250925092565b60006200032b826200033c565b9050919050565b6000819050919050565b600073ffffffffffffffffffffffffffffffffffffffff82169050919050565b600060028204905060018216806200037557607f821691505b602082108114156200038c576200038b62000392565b5b50919050565b7f4e487b7100000000000000000000000000000000000000000000000000000000600052602260045260246000fd5b620003cc816200031e565b8114620003d857600080fd5b50565b620003e68162000332565b8114620003f257600080fd5b50565b60805160601c60a05160601c613fa46200042f60003960008181610c8d015261194e0152600081816108a301526119120152613fa46000f3fe608060405234801561001057600080fd5b50600436106101585760003560e01c806361728f39116100c3578063a22cb4651161007c578063a22cb465146103f4578063a64ed8ba14610410578063b16741671461042e578063b88d4fde14610463578063c87b56dd1461047f578063e985e9c5146104af57610158565b806361728f39146103075780636352211e1461032557806370a082311461035557806394985ddd1461038557806395d89b41146103a1578063a06bb50f146103bf57610158565b806333b608631161011557806333b60863146102315780633edf2cd71461024f57806342619f661461027f57806342842e0e1461029d5780634f2be91f146102b957806354cbd4dd146102d757610158565b806301ffc9a71461015d57806306fdde031461018d57806307ed17e3146101ab578063081812fc146101c9578063095ea7b3146101f957806323b872dd14610215575b600080fd5b61017760048036038101906101729190612dae565b6104df565b604051610184919061378f565b60405180910390f35b6101956105c1565b6040516101a29190613833565b60405180910390f35b6101b3610653565b6040516101c091906136ea565b60405180910390f35b6101e360048036038101906101de9190612e00565b610679565b6040516101f091906136ea565b60405180910390f35b610213600480360381019061020e9190612d0d565b6106fe565b005b61022f600480360381019061022a9190612c07565b610816565b005b610239610876565b60405161024691906136ea565b60405180910390f35b61026960048036038101906102649190612e52565b61089c565b60405161027691906137aa565b60405180910390f35b610287610ab7565b6040516102949190613a95565b60405180910390f35b6102b760048036038101906102b29190612c07565b610abd565b005b6102c1610add565b6040516102ce91906136ea565b60405180910390f35b6102f160048036038101906102ec9190612ba2565b610b03565b6040516102fe9190613a95565b60405180910390f35b61030f610b1b565b60405161031c91906137aa565b60405180910390f35b61033f600480360381019061033a9190612e00565b610b21565b60405161034c91906136ea565b60405180910390f35b61036f600480360381019061036a9190612ba2565b610bd3565b60405161037c9190613a95565b60405180910390f35b61039f600480360381019061039a9190612d72565b610c8b565b005b6103a9610d27565b6040516103b69190613833565b60405180910390f35b6103d960048036038101906103d49190612e00565b610db9565b6040516103eb96959493929190613ab0565b60405180910390f35b61040e60048036038101906104099190612cd1565b610f15565b005b610418611096565b6040516104259190613a95565b60405180910390f35b61044860048036038101906104439190612d0d565b61109c565b60405161045a96959493929190613ab0565b60405180910390f35b61047d60048036038101906104789190612c56565b6111f5565b005b61049960048036038101906104949190612e00565b611257565b6040516104a69190613833565b60405180910390f35b6104c960048036038101906104c49190612bcb565b6113a9565b6040516104d6919061378f565b60405180910390f35b60007f80ac58cd000000000000000000000000000000000000000000000000000000007bffffffffffffffffffffffffffffffffffffffffffffffffffffffff1916827bffffffffffffffffffffffffffffffffffffffffffffffffffffffff191614806105aa57507f5b5e139f000000000000000000000000000000000000000000000000000000007bffffffffffffffffffffffffffffffffffffffffffffffffffffffff1916827bffffffffffffffffffffffffffffffffffffffffffffffffffffffff1916145b806105ba57506105b98261143d565b5b9050919050565b6060600080546105d090613d6e565b80601f01602080910402602001604051908101604052809291908181526020018280546105fc90613d6e565b80156106495780601f1061061e57610100808354040283529160200191610649565b820191906000526020600020905b81548152906001019060200180831161062c57829003601f168201915b5050505050905090565b600c60009054906101000a900473ffffffffffffffffffffffffffffffffffffffff1681565b6000610684826114a7565b6106c3576040517f08c379a00000000000000000000000000000000000000000000000000000000081526004016106ba906139d5565b60405180910390fd5b6004600083815260200190815260200160002060009054906101000a900473ffffffffffffffffffffffffffffffffffffffff169050919050565b600061070982610b21565b90508073ffffffffffffffffffffffffffffffffffffffff168373ffffffffffffffffffffffffffffffffffffffff16141561077a576040517f08c379a000000000000000000000000000000000000000000000000000000000815260040161077190613a55565b60405180910390fd5b8073ffffffffffffffffffffffffffffffffffffffff16610799611513565b73ffffffffffffffffffffffffffffffffffffffff1614806107c857506107c7816107c2611513565b6113a9565b5b610807576040517f08c379a00000000000000000000000000000000000000000000000000000000081526004016107fe90613915565b60405180910390fd5b610811838361151b565b505050565b610827610821611513565b826115d4565b610866576040517f08c379a000000000000000000000000000000000000000000000000000000000815260040161085d90613a75565b60405180910390fd5b6108718383836116b2565b505050565b600960009054906101000a900473ffffffffffffffffffffffffffffffffffffffff1681565b6000600a547f000000000000000000000000000000000000000000000000000000000000000073ffffffffffffffffffffffffffffffffffffffff166370a08231306040518263ffffffff1660e01b81526004016108fa91906136ea565b60206040518083038186803b15801561091257600080fd5b505afa158015610926573d6000803e3d6000fd5b505050506040513d601f19601f8201168201806040525081019061094a9190612e29565b101561098b576040517f08c379a0000000000000000000000000000000000000000000000000000000008152600401610982906138d5565b60405180910390fd5b600061099c600854600a548961190e565b9050856010600083815260200190815260200160002090805190602001906109c5929190612987565b50846011600083815260200190815260200160002081905550336012600083815260200190815260200160002060006101000a81548173ffffffffffffffffffffffffffffffffffffffff021916908373ffffffffffffffffffffffffffffffffffffffff160217905550836013600083815260200190815260200160002060006101000a81548173ffffffffffffffffffffffffffffffffffffffff021916908373ffffffffffffffffffffffffffffffffffffffff16021790555082601560008381526020019081526020016000209080519060200190610aa9929190612987565b508091505095945050505050565b600b5481565b610ad8838383604051806020016040528060008152506111f5565b505050565b600e60009054906101000a900473ffffffffffffffffffffffffffffffffffffffff1681565b60176020528060005260406000206000915090505481565b60085481565b6000806002600084815260200190815260200160002060009054906101000a900473ffffffffffffffffffffffffffffffffffffffff169050600073ffffffffffffffffffffffffffffffffffffffff168173ffffffffffffffffffffffffffffffffffffffff161415610bca576040517f08c379a0000000000000000000000000000000000000000000000000000000008152600401610bc190613955565b60405180910390fd5b80915050919050565b60008073ffffffffffffffffffffffffffffffffffffffff168273ffffffffffffffffffffffffffffffffffffffff161415610c44576040517f08c379a0000000000000000000000000000000000000000000000000000000008152600401610c3b90613935565b60405180910390fd5b600360008373ffffffffffffffffffffffffffffffffffffffff1673ffffffffffffffffffffffffffffffffffffffff168152602001908152602001600020549050919050565b7f000000000000000000000000000000000000000000000000000000000000000073ffffffffffffffffffffffffffffffffffffffff163373ffffffffffffffffffffffffffffffffffffffff1614610d19576040517f08c379a0000000000000000000000000000000000000000000000000000000008152600401610d1090613a35565b60405180910390fd5b610d238282611a6f565b5050565b606060018054610d3690613d6e565b80601f0160208091040260200160405190810160405280929190818152602001828054610d6290613d6e565b8015610daf5780601f10610d8457610100808354040283529160200191610daf565b820191906000526020600020905b815481529060010190602001808311610d9257829003601f168201915b5050505050905090565b600f8181548110610dc957600080fd5b9060005260206000209060060201600091509050806000015490806001015490806002015490806003018054610dfe90613d6e565b80601f0160208091040260200160405190810160405280929190818152602001828054610e2a90613d6e565b8015610e775780601f10610e4c57610100808354040283529160200191610e77565b820191906000526020600020905b815481529060010190602001808311610e5a57829003601f168201915b505050505090806004015490806005018054610e9290613d6e565b80601f0160208091040260200160405190810160405280929190818152602001828054610ebe90613d6e565b8015610f0b5780601f10610ee057610100808354040283529160200191610f0b565b820191906000526020600020905b815481529060010190602001808311610eee57829003601f168201915b5050505050905086565b610f1d611513565b73ffffffffffffffffffffffffffffffffffffffff168273ffffffffffffffffffffffffffffffffffffffff161415610f8b576040517f08c379a0000000000000000000000000000000000000000000000000000000008152600401610f82906138b5565b60405180910390fd5b8060056000610f98611513565b73ffffffffffffffffffffffffffffffffffffffff1673ffffffffffffffffffffffffffffffffffffffff16815260200190815260200160002060008473ffffffffffffffffffffffffffffffffffffffff1673ffffffffffffffffffffffffffffffffffffffff16815260200190815260200160002060006101000a81548160ff0219169083151502179055508173ffffffffffffffffffffffffffffffffffffffff16611045611513565b73ffffffffffffffffffffffffffffffffffffffff167f17307eab39ab6107e8899845ad3d59bd9653f200f220920489ca2b5937696c318360405161108a919061378f565b60405180910390a35050565b600d5481565b6016602052816000526040600020602052806000526040600020600091509150508060000154908060010154908060020154908060030180546110de90613d6e565b80601f016020809104026020016040519081016040528092919081815260200182805461110a90613d6e565b80156111575780601f1061112c57610100808354040283529160200191611157565b820191906000526020600020905b81548152906001019060200180831161113a57829003601f168201915b50505050509080600401549080600501805461117290613d6e565b80601f016020809104026020016040519081016040528092919081815260200182805461119e90613d6e565b80156111eb5780601f106111c0576101008083540402835291602001916111eb565b820191906000526020600020905b8154815290600101906020018083116111ce57829003601f168201915b5050505050905086565b611206611200611513565b836115d4565b611245576040517f08c379a000000000000000000000000000000000000000000000000000000000815260040161123c90613a75565b60405180910390fd5b611251848484846121e7565b50505050565b6060611262826114a7565b6112a1576040517f08c379a0000000000000000000000000000000000000000000000000000000008152600401611298906139b5565b60405180910390fd5b60006006600084815260200190815260200160002080546112c190613d6e565b80601f01602080910402602001604051908101604052809291908181526020018280546112ed90613d6e565b801561133a5780601f1061130f5761010080835404028352916020019161133a565b820191906000526020600020905b81548152906001019060200180831161131d57829003601f168201915b50505050509050600061134b612243565b90506000815114156113615781925050506113a4565b60008251111561139657808260405160200161137e9291906136c6565b604051602081830303815290604052925050506113a4565b61139f8461225a565b925050505b919050565b6000600560008473ffffffffffffffffffffffffffffffffffffffff1673ffffffffffffffffffffffffffffffffffffffff16815260200190815260200160002060008373ffffffffffffffffffffffffffffffffffffffff1673ffffffffffffffffffffffffffffffffffffffff16815260200190815260200160002060009054906101000a900460ff16905092915050565b60007f01ffc9a7000000000000000000000000000000000000000000000000000000007bffffffffffffffffffffffffffffffffffffffffffffffffffffffff1916827bffffffffffffffffffffffffffffffffffffffffffffffffffffffff1916149050919050565b60008073ffffffffffffffffffffffffffffffffffffffff166002600084815260200190815260200160002060009054906101000a900473ffffffffffffffffffffffffffffffffffffffff1673ffffffffffffffffffffffffffffffffffffffff1614159050919050565b600033905090565b816004600083815260200190815260200160002060006101000a81548173ffffffffffffffffffffffffffffffffffffffff021916908373ffffffffffffffffffffffffffffffffffffffff160217905550808273ffffffffffffffffffffffffffffffffffffffff1661158e83610b21565b73ffffffffffffffffffffffffffffffffffffffff167f8c5be1e5ebec7d5bd14f71427d1e84f3dd0314c0f7b2291e5b200ac8c7c3b92560405160405180910390a45050565b60006115df826114a7565b61161e576040517f08c379a0000000000000000000000000000000000000000000000000000000008152600401611615906138f5565b60405180910390fd5b600061162983610b21565b90508073ffffffffffffffffffffffffffffffffffffffff168473ffffffffffffffffffffffffffffffffffffffff16148061169857508373ffffffffffffffffffffffffffffffffffffffff1661168084610679565b73ffffffffffffffffffffffffffffffffffffffff16145b806116a957506116a881856113a9565b5b91505092915050565b8273ffffffffffffffffffffffffffffffffffffffff166116d282610b21565b73ffffffffffffffffffffffffffffffffffffffff1614611728576040517f08c379a000000000000000000000000000000000000000000000000000000000815260040161171f906139f5565b60405180910390fd5b600073ffffffffffffffffffffffffffffffffffffffff168273ffffffffffffffffffffffffffffffffffffffff161415611798576040517f08c379a000000000000000000000000000000000000000000000000000000000815260040161178f90613895565b60405180910390fd5b6117a3838383612301565b6117ae60008261151b565b6001600360008573ffffffffffffffffffffffffffffffffffffffff1673ffffffffffffffffffffffffffffffffffffffff16815260200190815260200160002060008282546117fe9190613c7a565b925050819055506001600360008473ffffffffffffffffffffffffffffffffffffffff1673ffffffffffffffffffffffffffffffffffffffff16815260200190815260200160002060008282546118559190613bf3565b92505081905550816002600083815260200190815260200160002060006101000a81548173ffffffffffffffffffffffffffffffffffffffff021916908373ffffffffffffffffffffffffffffffffffffffff160217905550808273ffffffffffffffffffffffffffffffffffffffff168473ffffffffffffffffffffffffffffffffffffffff167fddf252ad1be2c89b69c2b068fc378daa952ba7f163c4a11628f55a4df523b3ef60405160405180910390a4505050565b60007f000000000000000000000000000000000000000000000000000000000000000073ffffffffffffffffffffffffffffffffffffffff16634000aea07f00000000000000000000000000000000000000000000000000000000000000008587866040516020016119819291906137c5565b6040516020818303038152906040526040518463ffffffff1660e01b81526004016119ae93929190613751565b602060405180830381600087803b1580156119c857600080fd5b505af11580156119dc573d6000803e3d6000fd5b505050506040513d601f19601f82011682018060405250810190611a009190612d49565b506000611a22858430600760008a815260200190815260200160002054612306565b905060016007600087815260200190815260200160002054611a449190613bf3565b6007600087815260200190815260200160002081905550611a658582612342565b9150509392505050565b6000600f8054905090506000606483611a889190613dfd565b9050600060646103e885611a9c9190613dfd565b611aa69190613c49565b9050600f6040518060c00160405280858152602001848152602001838152602001601060008981526020019081526020016000208054611ae590613d6e565b80601f0160208091040260200160405190810160405280929190818152602001828054611b1190613d6e565b8015611b5e5780601f10611b3357610100808354040283529160200191611b5e565b820191906000526020600020905b815481529060010190602001808311611b4157829003601f168201915b5050505050815260200160116000898152602001908152602001600020548152602001601560008981526020019081526020016000208054611b9f90613d6e565b80601f0160208091040260200160405190810160405280929190818152602001828054611bcb90613d6e565b8015611c185780601f10611bed57610100808354040283529160200191611c18565b820191906000526020600020905b815481529060010190602001808311611bfb57829003601f168201915b505050505081525090806001815401808255809150506001900390600052602060002090600602016000909190919091506000820151816000015560208201518160010155604082015181600201556060820151816003019080519060200190611c83929190612987565b506080820151816004015560a0820151816005019080519060200190611caa929190612987565b505050600d6000815480929190611cc090613da0565b91905055506013600086815260200190815260200160002060009054906101000a900473ffffffffffffffffffffffffffffffffffffffff16600e60006101000a81548173ffffffffffffffffffffffffffffffffffffffff021916908373ffffffffffffffffffffffffffffffffffffffff1602179055506001601760006013600089815260200190815260200160002060009054906101000a900473ffffffffffffffffffffffffffffffffffffffff1673ffffffffffffffffffffffffffffffffffffffff1673ffffffffffffffffffffffffffffffffffffffff16815260200190815260200160002054611db89190613bf3565b601760006013600089815260200190815260200160002060009054906101000a900473ffffffffffffffffffffffffffffffffffffffff1673ffffffffffffffffffffffffffffffffffffffff1673ffffffffffffffffffffffffffffffffffffffff168152602001908152602001600020819055506040518060c00160405280848152602001838152602001828152602001601060008881526020019081526020016000208054611e6990613d6e565b80601f0160208091040260200160405190810160405280929190818152602001828054611e9590613d6e565b8015611ee25780601f10611eb757610100808354040283529160200191611ee2565b820191906000526020600020905b815481529060010190602001808311611ec557829003601f168201915b5050505050815260200160116000888152602001908152602001600020548152602001601560008881526020019081526020016000208054611f2390613d6e565b80601f0160208091040260200160405190810160405280929190818152602001828054611f4f90613d6e565b8015611f9c5780601f10611f7157610100808354040283529160200191611f9c565b820191906000526020600020905b815481529060010190602001808311611f7f57829003601f168201915b5050505050815250601660006013600089815260200190815260200160002060009054906101000a900473ffffffffffffffffffffffffffffffffffffffff1673ffffffffffffffffffffffffffffffffffffffff1673ffffffffffffffffffffffffffffffffffffffff168152602001908152602001600020600060176000601360008b815260200190815260200160002060009054906101000a900473ffffffffffffffffffffffffffffffffffffffff1673ffffffffffffffffffffffffffffffffffffffff1673ffffffffffffffffffffffffffffffffffffffff16815260200190815260200160002054815260200190815260200160002060008201518160000155602082015181600101556040820151816002015560608201518160030190805190602001906120d3929190612987565b506080820151816004015560a08201518160050190805190602001906120fa929190612987565b5090505061213b6012600087815260200190815260200160002060009054906101000a900473ffffffffffffffffffffffffffffffffffffffff1684612375565b6121e08360156000888152602001908152602001600020805461215d90613d6e565b80601f016020809104026020016040519081016040528092919081815260200182805461218990613d6e565b80156121d65780601f106121ab576101008083540402835291602001916121d6565b820191906000526020600020905b8154815290600101906020018083116121b957829003601f168201915b5050505050612393565b5050505050565b6121f28484846116b2565b6121fe84848484612407565b61223d576040517f08c379a000000000000000000000000000000000000000000000000000000000815260040161223490613855565b60405180910390fd5b50505050565b606060405180602001604052806000815250905090565b6060612265826114a7565b6122a4576040517f08c379a000000000000000000000000000000000000000000000000000000000815260040161229b90613a15565b60405180910390fd5b60006122ae612243565b905060008151116122ce57604051806020016040528060008152506122f9565b806122d88461259e565b6040516020016122e99291906136c6565b6040516020818303038152906040525b915050919050565b505050565b60008484848460405160200161231f94939291906137ee565b6040516020818303038152906040528051906020012060001c9050949350505050565b6000828260405160200161235792919061369a565b60405160208183030381529060405280519060200120905092915050565b61238f82826040518060200160405280600081525061274b565b5050565b61239c826114a7565b6123db576040517f08c379a00000000000000000000000000000000000000000000000000000000081526004016123d290613975565b60405180910390fd5b80600660008481526020019081526020016000209080519060200190612402929190612987565b505050565b60006124288473ffffffffffffffffffffffffffffffffffffffff166127a6565b15612591578373ffffffffffffffffffffffffffffffffffffffff1663150b7a02612451611513565b8786866040518563ffffffff1660e01b81526004016124739493929190613705565b602060405180830381600087803b15801561248d57600080fd5b505af19250505080156124be57506040513d601f19601f820116820180604052508101906124bb9190612dd7565b60015b612541573d80600081146124ee576040519150601f19603f3d011682016040523d82523d6000602084013e6124f3565b606091505b50600081511415612539576040517f08c379a000000000000000000000000000000000000000000000000000000000815260040161253090613855565b60405180910390fd5b805181602001fd5b63150b7a0260e01b7bffffffffffffffffffffffffffffffffffffffffffffffffffffffff1916817bffffffffffffffffffffffffffffffffffffffffffffffffffffffff191614915050612596565b600190505b949350505050565b606060008214156125e6576040518060400160405280600181526020017f30000000000000000000000000000000000000000000000000000000000000008152509050612746565b600082905060005b6000821461261857808061260190613da0565b915050600a826126119190613c49565b91506125ee565b60008167ffffffffffffffff81111561265a577f4e487b7100000000000000000000000000000000000000000000000000000000600052604160045260246000fd5b6040519080825280601f01601f19166020018201604052801561268c5781602001600182028036833780820191505090505b5090505b6000851461273f576001826126a59190613c7a565b9150600a856126b49190613dfd565b60306126c09190613bf3565b60f81b8183815181106126fc577f4e487b7100000000000000000000000000000000000000000000000000000000600052603260045260246000fd5b60200101907effffffffffffffffffffffffffffffffffffffffffffffffffffffffffffff1916908160001a905350600a856127389190613c49565b9450612690565b8093505050505b919050565b61275583836127b9565b6127626000848484612407565b6127a1576040517f08c379a000000000000000000000000000000000000000000000000000000000815260040161279890613855565b60405180910390fd5b505050565b600080823b905060008111915050919050565b600073ffffffffffffffffffffffffffffffffffffffff168273ffffffffffffffffffffffffffffffffffffffff161415612829576040517f08c379a000000000000000000000000000000000000000000000000000000000815260040161282090613995565b60405180910390fd5b612832816114a7565b15612872576040517f08c379a000000000000000000000000000000000000000000000000000000000815260040161286990613875565b60405180910390fd5b61287e60008383612301565b6001600360008473ffffffffffffffffffffffffffffffffffffffff1673ffffffffffffffffffffffffffffffffffffffff16815260200190815260200160002060008282546128ce9190613bf3565b92505081905550816002600083815260200190815260200160002060006101000a81548173ffffffffffffffffffffffffffffffffffffffff021916908373ffffffffffffffffffffffffffffffffffffffff160217905550808273ffffffffffffffffffffffffffffffffffffffff16600073ffffffffffffffffffffffffffffffffffffffff167fddf252ad1be2c89b69c2b068fc378daa952ba7f163c4a11628f55a4df523b3ef60405160405180910390a45050565b82805461299390613d6e565b90600052602060002090601f0160209004810192826129b557600085556129fc565b82601f106129ce57805160ff19168380011785556129fc565b828001600101855582156129fc579182015b828111156129fb5782518255916020019190600101906129e0565b5b509050612a099190612a0d565b5090565b5b80821115612a26576000816000905550600101612a0e565b5090565b6000612a3d612a3884613b50565b613b1f565b905082815260208101848484011115612a5557600080fd5b612a60848285613d2c565b509392505050565b6000612a7b612a7684613b80565b613b1f565b905082815260208101848484011115612a9357600080fd5b612a9e848285613d2c565b509392505050565b600081359050612ab581613efb565b92915050565b600081359050612aca81613f12565b92915050565b600081519050612adf81613f12565b92915050565b600081359050612af481613f29565b92915050565b600081359050612b0981613f40565b92915050565b600081519050612b1e81613f40565b92915050565b600082601f830112612b3557600080fd5b8135612b45848260208601612a2a565b91505092915050565b600082601f830112612b5f57600080fd5b8135612b6f848260208601612a68565b91505092915050565b600081359050612b8781613f57565b92915050565b600081519050612b9c81613f57565b92915050565b600060208284031215612bb457600080fd5b6000612bc284828501612aa6565b91505092915050565b60008060408385031215612bde57600080fd5b6000612bec85828601612aa6565b9250506020612bfd85828601612aa6565b9150509250929050565b600080600060608486031215612c1c57600080fd5b6000612c2a86828701612aa6565b9350506020612c3b86828701612aa6565b9250506040612c4c86828701612b78565b9150509250925092565b60008060008060808587031215612c6c57600080fd5b6000612c7a87828801612aa6565b9450506020612c8b87828801612aa6565b9350506040612c9c87828801612b78565b925050606085013567ffffffffffffffff811115612cb957600080fd5b612cc587828801612b24565b91505092959194509250565b60008060408385031215612ce457600080fd5b6000612cf285828601612aa6565b9250506020612d0385828601612abb565b9150509250929050565b60008060408385031215612d2057600080fd5b6000612d2e85828601612aa6565b9250506020612d3f85828601612b78565b9150509250929050565b600060208284031215612d5b57600080fd5b6000612d6984828501612ad0565b91505092915050565b60008060408385031215612d8557600080fd5b6000612d9385828601612ae5565b9250506020612da485828601612b78565b9150509250929050565b600060208284031215612dc057600080fd5b6000612dce84828501612afa565b91505092915050565b600060208284031215612de957600080fd5b6000612df784828501612b0f565b91505092915050565b600060208284031215612e1257600080fd5b6000612e2084828501612b78565b91505092915050565b600060208284031215612e3b57600080fd5b6000612e4984828501612b8d565b91505092915050565b600080600080600060a08688031215612e6a57600080fd5b6000612e7888828901612b78565b955050602086013567ffffffffffffffff811115612e9557600080fd5b612ea188828901612b4e565b9450506040612eb288828901612b78565b9350506060612ec388828901612aa6565b925050608086013567ffffffffffffffff811115612ee057600080fd5b612eec88828901612b4e565b9150509295509295909350565b612f0281613cae565b82525050565b612f1181613cc0565b82525050565b612f2081613ccc565b82525050565b612f37612f3282613ccc565b613de9565b82525050565b6000612f4882613bb0565b612f528185613bc6565b9350612f62818560208601613d3b565b612f6b81613eea565b840191505092915050565b6000612f8182613bbb565b612f8b8185613bd7565b9350612f9b818560208601613d3b565b612fa481613eea565b840191505092915050565b6000612fba82613bbb565b612fc48185613be8565b9350612fd4818560208601613d3b565b80840191505092915050565b6000612fed603283613bd7565b91507f4552433732313a207472616e7366657220746f206e6f6e20455243373231526560008301527f63656976657220696d706c656d656e74657200000000000000000000000000006020830152604082019050919050565b6000613053601c83613bd7565b91507f4552433732313a20746f6b656e20616c7265616479206d696e746564000000006000830152602082019050919050565b6000613093602483613bd7565b91507f4552433732313a207472616e7366657220746f20746865207a65726f2061646460008301527f72657373000000000000000000000000000000000000000000000000000000006020830152604082019050919050565b60006130f9601983613bd7565b91507f4552433732313a20617070726f766520746f2063616c6c6572000000000000006000830152602082019050919050565b6000613139602b83613bd7565b91507f4e6f7420656e6f756768204c494e4b202d2066696c6c20636f6e74726163742060008301527f77697468206661756365740000000000000000000000000000000000000000006020830152604082019050919050565b600061319f602c83613bd7565b91507f4552433732313a206f70657261746f7220717565727920666f72206e6f6e657860008301527f697374656e7420746f6b656e00000000000000000000000000000000000000006020830152604082019050919050565b6000613205603883613bd7565b91507f4552433732313a20617070726f76652063616c6c6572206973206e6f74206f7760008301527f6e6572206e6f7220617070726f76656420666f7220616c6c00000000000000006020830152604082019050919050565b600061326b602a83613bd7565b91507f4552433732313a2062616c616e636520717565727920666f7220746865207a6560008301527f726f2061646472657373000000000000000000000000000000000000000000006020830152604082019050919050565b60006132d1602983613bd7565b91507f4552433732313a206f776e657220717565727920666f72206e6f6e657869737460008301527f656e7420746f6b656e00000000000000000000000000000000000000000000006020830152604082019050919050565b6000613337602e83613bd7565b91507f45524337323155524953746f726167653a2055524920736574206f66206e6f6e60008301527f6578697374656e7420746f6b656e0000000000000000000000000000000000006020830152604082019050919050565b600061339d602083613bd7565b91507f4552433732313a206d696e7420746f20746865207a65726f20616464726573736000830152602082019050919050565b60006133dd603183613bd7565b91507f45524337323155524953746f726167653a2055524920717565727920666f722060008301527f6e6f6e6578697374656e7420746f6b656e0000000000000000000000000000006020830152604082019050919050565b6000613443602c83613bd7565b91507f4552433732313a20617070726f76656420717565727920666f72206e6f6e657860008301527f697374656e7420746f6b656e00000000000000000000000000000000000000006020830152604082019050919050565b60006134a9602983613bd7565b91507f4552433732313a207472616e73666572206f6620746f6b656e2074686174206960008301527f73206e6f74206f776e00000000000000000000000000000000000000000000006020830152604082019050919050565b600061350f602f83613bd7565b91507f4552433732314d657461646174613a2055524920717565727920666f72206e6f60008301527f6e6578697374656e7420746f6b656e00000000000000000000000000000000006020830152604082019050919050565b6000613575601f83613bd7565b91507f4f6e6c7920565246436f6f7264696e61746f722063616e2066756c66696c6c006000830152602082019050919050565b60006135b5602183613bd7565b91507f4552433732313a20617070726f76616c20746f2063757272656e74206f776e6560008301527f72000000000000000000000000000000000000000000000000000000000000006020830152604082019050919050565b600061361b603183613bd7565b91507f4552433732313a207472616e736665722063616c6c6572206973206e6f74206f60008301527f776e6572206e6f7220617070726f7665640000000000000000000000000000006020830152604082019050919050565b61367d81613d22565b82525050565b61369461368f82613d22565b613df3565b82525050565b60006136a68285612f26565b6020820191506136b68284613683565b6020820191508190509392505050565b60006136d28285612faf565b91506136de8284612faf565b91508190509392505050565b60006020820190506136ff6000830184612ef9565b92915050565b600060808201905061371a6000830187612ef9565b6137276020830186612ef9565b6137346040830185613674565b81810360608301526137468184612f3d565b905095945050505050565b60006060820190506137666000830186612ef9565b6137736020830185613674565b81810360408301526137858184612f3d565b9050949350505050565b60006020820190506137a46000830184612f08565b92915050565b60006020820190506137bf6000830184612f17565b92915050565b60006040820190506137da6000830185612f17565b6137e76020830184613674565b9392505050565b60006080820190506138036000830187612f17565b6138106020830186613674565b61381d6040830185612ef9565b61382a6060830184613674565b95945050505050565b6000602082019050818103600083015261384d8184612f76565b905092915050565b6000602082019050818103600083015261386e81612fe0565b9050919050565b6000602082019050818103600083015261388e81613046565b9050919050565b600060208201905081810360008301526138ae81613086565b9050919050565b600060208201905081810360008301526138ce816130ec565b9050919050565b600060208201905081810360008301526138ee8161312c565b9050919050565b6000602082019050818103600083015261390e81613192565b9050919050565b6000602082019050818103600083015261392e816131f8565b9050919050565b6000602082019050818103600083015261394e8161325e565b9050919050565b6000602082019050818103600083015261396e816132c4565b9050919050565b6000602082019050818103600083015261398e8161332a565b9050919050565b600060208201905081810360008301526139ae81613390565b9050919050565b600060208201905081810360008301526139ce816133d0565b9050919050565b600060208201905081810360008301526139ee81613436565b9050919050565b60006020820190508181036000830152613a0e8161349c565b9050919050565b60006020820190508181036000830152613a2e81613502565b9050919050565b60006020820190508181036000830152613a4e81613568565b9050919050565b60006020820190508181036000830152613a6e816135a8565b9050919050565b60006020820190508181036000830152613a8e8161360e565b9050919050565b6000602082019050613aaa6000830184613674565b92915050565b600060c082019050613ac56000830189613674565b613ad26020830188613674565b613adf6040830187613674565b8181036060830152613af18186612f76565b9050613b006080830185613674565b81810360a0830152613b128184612f76565b9050979650505050505050565b6000604051905081810181811067ffffffffffffffff82111715613b4657613b45613ebb565b5b8060405250919050565b600067ffffffffffffffff821115613b6b57613b6a613ebb565b5b601f19601f8301169050602081019050919050565b600067ffffffffffffffff821115613b9b57613b9a613ebb565b5b601f19601f8301169050602081019050919050565b600081519050919050565b600081519050919050565b600082825260208201905092915050565b600082825260208201905092915050565b600081905092915050565b6000613bfe82613d22565b9150613c0983613d22565b9250827fffffffffffffffffffffffffffffffffffffffffffffffffffffffffffffffff03821115613c3e57613c3d613e2e565b5b828201905092915050565b6000613c5482613d22565b9150613c5f83613d22565b925082613c6f57613c6e613e5d565b5b828204905092915050565b6000613c8582613d22565b9150613c9083613d22565b925082821015613ca357613ca2613e2e565b5b828203905092915050565b6000613cb982613d02565b9050919050565b60008115159050919050565b6000819050919050565b60007fffffffff0000000000000000000000000000000000000000000000000000000082169050919050565b600073ffffffffffffffffffffffffffffffffffffffff82169050919050565b6000819050919050565b82818337600083830152505050565b60005b83811015613d59578082015181840152602081019050613d3e565b83811115613d68576000848401525b50505050565b60006002820490506001821680613d8657607f821691505b60208210811415613d9a57613d99613e8c565b5b50919050565b6000613dab82613d22565b91507fffffffffffffffffffffffffffffffffffffffffffffffffffffffffffffffff821415613dde57613ddd613e2e565b5b600182019050919050565b6000819050919050565b6000819050919050565b6000613e0882613d22565b9150613e1383613d22565b925082613e2357613e22613e5d565b5b828206905092915050565b7f4e487b7100000000000000000000000000000000000000000000000000000000600052601160045260246000fd5b7f4e487b7100000000000000000000000000000000000000000000000000000000600052601260045260246000fd5b7f4e487b7100000000000000000000000000000000000000000000000000000000600052602260045260246000fd5b7f4e487b7100000000000000000000000000000000000000000000000000000000600052604160045260246000fd5b6000601f19601f8301169050919050565b613f0481613cae565b8114613f0f57600080fd5b50565b613f1b81613cc0565b8114613f2657600080fd5b50565b613f3281613ccc565b8114613f3d57600080fd5b50565b613f4981613cd6565b8114613f5457600080fd5b50565b613f6081613d22565b8114613f6b57600080fd5b5056fea2646970667358221220b55afe97c2df4699143419acbafaf45f24194a185a4bf3fe19d7ee24be6b0baf64736f6c63430008000033",
  "immutableReferences": {
    "773": [
      {
        "length": 32,
        "start": 2211
      },
      {
        "length": 32,
        "start": 6418
      }
    ],
    "775": [
      {
        "length": 32,
        "start": 3213
      },
      {
        "length": 32,
        "start": 6478
      }
    ]
  },
  "source": "// SPDX-License-Identifier: MIT\npragma solidity ^0.8.0;\n\n// const RINKEBY_VRF_COORDINATOR = '0xb3dCcb4Cf7a26f6cf6B120Cf5A73875B7BBc655B'\n// const RINKEBY_LINKTOKEN = '0x01BE23585060835E02B77ef475b0Cc51aA1e0709'\n// const RINKEBY_KEYHASH = '0x2ed0feb3e7fd2022120aa84fab1945545a9f2ffc9076fd6156fa96eaff4c1311'\n\nimport \"@openzeppelin/contracts/token/ERC721/extensions/ERC721URIStorage.sol\";\nimport \"./link/VRFConsumerBase.sol\";\nimport \"@openzeppelin/contracts/utils/Strings.sol\";\nimport {SafeMath} from \"./utils/SafeMath.sol\";\n\ncontract NFTTrophy is ERC721URIStorage, VRFConsumerBase {\n    using SafeMath for uint256;\n    using Strings for string;\n    \n    bytes32 public keyHash;\n    address public VRFCoordinator;\n    uint256 internal fee;\n    uint256 public randomResult;\n    address public Linktoken;\n    uint256 public tokensCount;\n    address public add;\n\n    struct Trophy {\n        uint256 tokenId;\n        uint256 rarity;\n        uint256 worth;\n        string name;\n        uint256 levelPass;\n        string image;\n    }\n\n    Trophy[] public trophies;\n    // mappings will go here\n    mapping(bytes32 => string) requestToTrophyName;\n    mapping(bytes32 => uint256) requestToLevel;\n    mapping(bytes32 => address) requestToSender;\n    mapping(bytes32 => address) requestAddress;\n    mapping(bytes32 => uint256) requestToTokenId;\n    mapping(bytes32 => string) requestNftURI;\n    mapping(address => mapping(uint256 => Trophy)) public usersNft;\n    mapping(address => uint256) public usersNftCount;\n\n    constructor(\n        address _VRFCoordinator,\n        address _LinkToken,\n        bytes32 _keyHash\n    )\n        public\n        VRFConsumerBase(_VRFCoordinator, _LinkToken)\n        ERC721(\"TrophyChar\", \"TRP\")\n    {\n        VRFCoordinator = _VRFCoordinator;\n        keyHash = _keyHash;\n        Linktoken = _LinkToken;\n        fee = 0.1 * 10**18; // 0.1 LINK\n    }\n\n    function requestNewRandomTrophy(\n        uint256 userProvidedSeed,\n        string memory name,\n        uint256 levelPass,\n        address walletAddress,\n        string memory _tokenURI\n    ) public returns (bytes32) {\n        require(\n            LINK.balanceOf(address(this)) >= fee,\n            \"Not enough LINK - fill contract with faucet\"\n        );\n        bytes32 requestId = requestRandomness(keyHash, fee, userProvidedSeed);\n        requestToTrophyName[requestId] = name;\n        requestToLevel[requestId] = levelPass;\n        requestToSender[requestId] = msg.sender;\n        requestAddress[requestId] = walletAddress;\n        requestNftURI[requestId] = _tokenURI;\n\n        return requestId;\n    }\n\n    function fulfillRandomness(bytes32 requestId, uint256 randomNumber)\n        internal\n        override\n    {\n        //define the NFT\n        uint256 newId = trophies.length;\n        uint256 rarity = (randomNumber % 100);\n        uint256 worth = ((randomNumber % 1000) / 100);\n\n        trophies.push(\n            Trophy(\n                newId,\n                rarity,\n                worth,\n                requestToTrophyName[requestId],\n                requestToLevel[requestId],\n                requestNftURI[requestId]\n            )\n        );\n\n        tokensCount++;\n        add = requestAddress[requestId];\n        usersNftCount[requestAddress[requestId]] =\n            usersNftCount[requestAddress[requestId]] +\n            1;\n\n        usersNft[requestAddress[requestId]][\n            usersNftCount[requestAddress[requestId]]\n        ] = Trophy(\n            newId,\n            rarity,\n            worth,\n            requestToTrophyName[requestId],\n            requestToLevel[requestId],\n            requestNftURI[requestId]\n        );\n\n        //_safeMint(requestToSender[requestId], newId);\n        _safeMint(requestToSender[requestId], newId);\n        _setTokenURI(newId, requestNftURI[requestId]);\n    }\n\n    function sqrt(uint256 x) internal view returns (uint256 y) {\n        uint256 z = (x + 1) / 2;\n        y = x;\n        while (z < y) {\n            y = z;\n            z = (x / z + z) / 2;\n        }\n    }\n}\n",
  "sourcePath": "/Users/newsgate/Work/Chainlink-Jockey/src/contracts/NFTTrophy.sol",
  "compiler": {
    "name": "solc",
    "version": "0.8.0+commit.c7dfd78e.Emscripten.clang"
  },
  "schemaVersion": "3.2.3",
  "updatedAt": "2021-05-29T19:53:52.260Z",
  "networkType": "ethereum",
  "devdoc": {
    "kind": "dev",
    "methods": {
      "approve(address,uint256)": {
        "details": "See {IERC721-approve}."
      },
      "balanceOf(address)": {
        "details": "See {IERC721-balanceOf}."
      },
      "getApproved(uint256)": {
        "details": "See {IERC721-getApproved}."
      },
      "isApprovedForAll(address,address)": {
        "details": "See {IERC721-isApprovedForAll}."
      },
      "name()": {
        "details": "See {IERC721Metadata-name}."
      },
      "ownerOf(uint256)": {
        "details": "See {IERC721-ownerOf}."
      },
      "safeTransferFrom(address,address,uint256)": {
        "details": "See {IERC721-safeTransferFrom}."
      },
      "safeTransferFrom(address,address,uint256,bytes)": {
        "details": "See {IERC721-safeTransferFrom}."
      },
      "setApprovalForAll(address,bool)": {
        "details": "See {IERC721-setApprovalForAll}."
      },
      "supportsInterface(bytes4)": {
        "details": "See {IERC165-supportsInterface}."
      },
      "symbol()": {
        "details": "See {IERC721Metadata-symbol}."
      },
      "tokenURI(uint256)": {
        "details": "See {IERC721Metadata-tokenURI}."
      },
      "transferFrom(address,address,uint256)": {
        "details": "See {IERC721-transferFrom}."
      }
    },
    "version": 1
  },
  "userdoc": {
    "kind": "user",
    "methods": {},
    "version": 1
  }
}