{
  "contractName": "Race",
  "abi": [
    {
      "inputs": [
        {
          "internalType": "address",
          "name": "_VRFCoordinator",
          "type": "address"
        },
        {
          "internalType": "address",
          "name": "_LinkToken",
          "type": "address"
        },
        {
          "internalType": "bytes32",
          "name": "_keyHash",
          "type": "bytes32"
        }
      ],
      "stateMutability": "nonpayable",
      "type": "constructor"
    },
    {
      "inputs": [],
      "name": "Linktoken",
      "outputs": [
        {
          "internalType": "address",
          "name": "",
          "type": "address"
        }
      ],
      "stateMutability": "view",
      "type": "function",
      "constant": true
    },
    {
      "inputs": [],
      "name": "VRFCoordinator",
      "outputs": [
        {
          "internalType": "address",
          "name": "",
          "type": "address"
        }
      ],
      "stateMutability": "view",
      "type": "function",
      "constant": true
    },
    {
      "inputs": [],
      "name": "keyHash",
      "outputs": [
        {
          "internalType": "bytes32",
          "name": "",
          "type": "bytes32"
        }
      ],
      "stateMutability": "view",
      "type": "function",
      "constant": true
    },
    {
      "inputs": [],
      "name": "randomResult",
      "outputs": [
        {
          "internalType": "uint256",
          "name": "",
          "type": "uint256"
        }
      ],
      "stateMutability": "view",
      "type": "function",
      "constant": true
    },
    {
      "inputs": [
        {
          "internalType": "bytes32",
          "name": "requestId",
          "type": "bytes32"
        },
        {
          "internalType": "uint256",
          "name": "randomness",
          "type": "uint256"
        }
      ],
      "name": "rawFulfillRandomness",
      "outputs": [],
      "stateMutability": "nonpayable",
      "type": "function"
    },
    {
      "inputs": [],
      "name": "totalRaces",
      "outputs": [
        {
          "internalType": "uint256",
          "name": "",
          "type": "uint256"
        }
      ],
      "stateMutability": "view",
      "type": "function",
      "constant": true
    },
    {
      "inputs": [],
      "name": "setHorseSpeed",
      "outputs": [
        {
          "internalType": "bytes32",
          "name": "requestId",
          "type": "bytes32"
        }
      ],
      "stateMutability": "nonpayable",
      "type": "function"
    },
    {
      "inputs": [],
      "name": "getHorseSpeed",
      "outputs": [
        {
          "internalType": "uint256",
          "name": "",
          "type": "uint256"
        }
      ],
      "stateMutability": "view",
      "type": "function",
      "constant": true
    }
  ],
  "bytecode": "0x60c06040523480156200001157600080fd5b5060405162000d6c38038062000d6c833981810160405281019062000037919062000180565b82828173ffffffffffffffffffffffffffffffffffffffff1660a08173ffffffffffffffffffffffffffffffffffffffff1660601b815250508073ffffffffffffffffffffffffffffffffffffffff1660808173ffffffffffffffffffffffffffffffffffffffff1660601b81525050505082600260006101000a81548173ffffffffffffffffffffffffffffffffffffffff021916908373ffffffffffffffffffffffffffffffffffffffff1602179055508060018190555081600560006101000a81548173ffffffffffffffffffffffffffffffffffffffff021916908373ffffffffffffffffffffffffffffffffffffffff16021790555067016345785d8a0000600381905550600060068190555050505062000248565b600081519050620001638162000214565b92915050565b6000815190506200017a816200022e565b92915050565b6000806000606084860312156200019657600080fd5b6000620001a68682870162000152565b9350506020620001b98682870162000152565b9250506040620001cc8682870162000169565b9150509250925092565b6000620001e382620001f4565b9050919050565b6000819050919050565b600073ffffffffffffffffffffffffffffffffffffffff82169050919050565b6200021f81620001d6565b81146200022b57600080fd5b50565b6200023981620001ea565b81146200024557600080fd5b50565b60805160601c60a05160601c610aea62000282600039600081816102fc01526103f60152600081816101da01526103ba0152610aea6000f3fe608060405234801561001057600080fd5b50600436106100885760003560e01c80635bdcca9e1161005b5780635bdcca9e1461010557806361728f391461012357806394985ddd14610141578063eac2e71a1461015d57610088565b806307ed17e31461008d5780630f52a5f6146100ab57806333b60863146100c957806342619f66146100e7575b600080fd5b61009561017b565b6040516100a291906107d6565b60405180910390f35b6100b36101a1565b6040516100c091906108f8565b60405180910390f35b6100d16101a7565b6040516100de91906107d6565b60405180910390f35b6100ef6101cd565b6040516100fc91906108f8565b60405180910390f35b61010d6101d3565b60405161011a919061082f565b60405180910390f35b61012b6102f4565b604051610138919061082f565b60405180910390f35b61015b6004803603810190610156919061060b565b6102fa565b005b610165610396565b60405161017291906108f8565b60405180910390f35b600560009054906101000a900473ffffffffffffffffffffffffffffffffffffffff1681565b60065481565b600260009054906101000a900473ffffffffffffffffffffffffffffffffffffffff1681565b60045481565b60006003547f000000000000000000000000000000000000000000000000000000000000000073ffffffffffffffffffffffffffffffffffffffff166370a08231306040518263ffffffff1660e01b815260040161023191906107d6565b60206040518083038186803b15801561024957600080fd5b505afa15801561025d573d6000803e3d6000fd5b505050506040513d601f19601f820116820180604052508101906102819190610647565b10156102c2576040517f08c379a00000000000000000000000000000000000000000000000000000000081526004016102b9906108b8565b60405180910390fd5b6102d860016006546103a090919063ffffffff16565b6006819055506102ef6001546003546006546103b6565b905090565b60015481565b7f000000000000000000000000000000000000000000000000000000000000000073ffffffffffffffffffffffffffffffffffffffff163373ffffffffffffffffffffffffffffffffffffffff1614610388576040517f08c379a000000000000000000000000000000000000000000000000000000000815260040161037f906108d8565b60405180910390fd5b6103928282610514565b5050565b6000600454905090565b600081836103ae9190610940565b905092915050565b60007f000000000000000000000000000000000000000000000000000000000000000073ffffffffffffffffffffffffffffffffffffffff16634000aea07f000000000000000000000000000000000000000000000000000000000000000085878660405160200161042992919061084a565b6040516020818303038152906040526040518463ffffffff1660e01b8152600401610456939291906107f1565b602060405180830381600087803b15801561047057600080fd5b505af1158015610484573d6000803e3d6000fd5b505050506040513d601f19601f820116820180604052508101906104a891906105e2565b5060006104c98584306000808a81526020019081526020016000205461051f565b90506001600080878152602001908152602001600020546104ea9190610940565b6000808781526020019081526020016000208190555061050a858261055b565b9150509392505050565b806004819055505050565b6000848484846040516020016105389493929190610873565b6040516020818303038152906040528051906020012060001c9050949350505050565b600082826040516020016105709291906107aa565b60405160208183030381529060405280519060200120905092915050565b60008151905061059d81610a6f565b92915050565b6000813590506105b281610a86565b92915050565b6000813590506105c781610a9d565b92915050565b6000815190506105dc81610a9d565b92915050565b6000602082840312156105f457600080fd5b60006106028482850161058e565b91505092915050565b6000806040838503121561061e57600080fd5b600061062c858286016105a3565b925050602061063d858286016105b8565b9150509250929050565b60006020828403121561065957600080fd5b6000610667848285016105cd565b91505092915050565b61067981610996565b82525050565b610688816109b4565b82525050565b61069f61069a826109b4565b610a1b565b82525050565b60006106b082610913565b6106ba818561091e565b93506106ca8185602086016109e8565b6106d381610a5e565b840191505092915050565b60006106eb602b8361092f565b91507f4e6f7420656e6f756768204c494e4b202d2066696c6c20636f6e74726163742060008301527f77697468206661756365740000000000000000000000000000000000000000006020830152604082019050919050565b6000610751601f8361092f565b91507f4f6e6c7920565246436f6f7264696e61746f722063616e2066756c66696c6c006000830152602082019050919050565b61078d816109de565b82525050565b6107a461079f826109de565b610a25565b82525050565b60006107b6828561068e565b6020820191506107c68284610793565b6020820191508190509392505050565b60006020820190506107eb6000830184610670565b92915050565b60006060820190506108066000830186610670565b6108136020830185610784565b818103604083015261082581846106a5565b9050949350505050565b6000602082019050610844600083018461067f565b92915050565b600060408201905061085f600083018561067f565b61086c6020830184610784565b9392505050565b6000608082019050610888600083018761067f565b6108956020830186610784565b6108a26040830185610670565b6108af6060830184610784565b95945050505050565b600060208201905081810360008301526108d1816106de565b9050919050565b600060208201905081810360008301526108f181610744565b9050919050565b600060208201905061090d6000830184610784565b92915050565b600081519050919050565b600082825260208201905092915050565b600082825260208201905092915050565b600061094b826109de565b9150610956836109de565b9250827fffffffffffffffffffffffffffffffffffffffffffffffffffffffffffffffff0382111561098b5761098a610a2f565b5b828201905092915050565b60006109a1826109be565b9050919050565b60008115159050919050565b6000819050919050565b600073ffffffffffffffffffffffffffffffffffffffff82169050919050565b6000819050919050565b60005b83811015610a065780820151818401526020810190506109eb565b83811115610a15576000848401525b50505050565b6000819050919050565b6000819050919050565b7f4e487b7100000000000000000000000000000000000000000000000000000000600052601160045260246000fd5b6000601f19601f8301169050919050565b610a78816109a8565b8114610a8357600080fd5b50565b610a8f816109b4565b8114610a9a57600080fd5b50565b610aa6816109de565b8114610ab157600080fd5b5056fea264697066735822122059f92306939640afecdc26f141ecec53c62f12927e57432bd4ea114b60353f0164736f6c63430008000033",
  "immutableReferences": {
    "784": [
      {
        "length": 32,
        "start": 474
      },
      {
        "length": 32,
        "start": 954
      }
    ],
    "786": [
      {
        "length": 32,
        "start": 764
      },
      {
        "length": 32,
        "start": 1014
      }
    ]
  },
  "source": "// SPDX-License-Identifier: MIT\npragma solidity ^0.8.0;\n\n// const RINKEBY_VRF_COORDINATOR = '0xb3dCcb4Cf7a26f6cf6B120Cf5A73875B7BBc655B'\n// const RINKEBY_LINKTOKEN = '0x01BE23585060835E02B77ef475b0Cc51aA1e0709'\n// const RINKEBY_KEYHASH = '0x2ed0feb3e7fd2022120aa84fab1945545a9f2ffc9076fd6156fa96eaff4c1311'\n\nimport \"@openzeppelin/contracts/token/ERC721/extensions/ERC721URIStorage.sol\";\nimport \"./link/VRFConsumerBase.sol\";\nimport \"@openzeppelin/contracts/utils/Strings.sol\";\nimport {SafeMath} from \"./utils/SafeMath.sol\";\n\ncontract Race is VRFConsumerBase {\n    using SafeMath for uint256;\n    using Strings for string;\n    \n    bytes32 public keyHash;\n    address public VRFCoordinator;\n    uint256 internal fee;\n    uint256 public randomResult;\n    address public Linktoken;\n    uint256 public totalRaces;\n\n    constructor(\n        address _VRFCoordinator,\n        address _LinkToken,\n        bytes32 _keyHash\n    )\n        public\n        VRFConsumerBase(_VRFCoordinator, _LinkToken)\n    {\n        VRFCoordinator = _VRFCoordinator;\n        keyHash = _keyHash;\n        Linktoken = _LinkToken;\n        fee = 0.1 * 10**18; // 0.1 LINK\n        totalRaces = 0;\n    }\n\n    function setHorseSpeed() public returns (bytes32 requestId) {\n        require(LINK.balanceOf(address(this)) >= fee, \"Not enough LINK - fill contract with faucet\");\n        totalRaces = totalRaces.add(1);\n        return requestRandomness(keyHash, fee, totalRaces);\n    }\n\n    /**\n     * Callback function used by VRF Coordinator\n     */\n    function fulfillRandomness(bytes32 requestId, uint256 randomness) internal override {\n        randomResult = randomness;\n    }\n\n    function getHorseSpeed() public view returns (uint256) {\n        return randomResult;\n    }\n\n    function sqrt(uint256 x) internal view returns (uint256 y) {\n        uint256 z = (x + 1) / 2;\n        y = x;\n        while (z < y) {\n            y = z;\n            z = (x / z + z) / 2;\n        }\n    }\n}\n",
  "sourcePath": "/Users/newsgate/Work/Chainlink-Jockey/src/contracts/Race.sol",
  "compiler": {
    "name": "solc",
    "version": "0.8.0+commit.c7dfd78e.Emscripten.clang"
  },
  "schemaVersion": "3.2.3",
  "updatedAt": "2021-05-29T19:53:52.255Z",
  "networkType": "ethereum",
  "devdoc": {
    "kind": "dev",
    "methods": {},
    "version": 1
  },
  "userdoc": {
    "kind": "user",
    "methods": {},
    "version": 1
  }
}